:100000000C943A000C9457000C9457000C94570031
:100010000C9457000C9457000C9457000C94570004
:100020000C9457000C9457000C9457000C945700F4
:100030000C9457000C9457000C9457000C945700E4
:100040000C9457000C9457000C9457000C945700D4
:100050000C9457000C9457000C9457000C945700C4
:100060000C9457000C9457006364696E6F7073753D
:1000700078585B0011241FBECFEFD8E0DEBFCDBFA4
:1000800012E0A0E0B1E0E2E1F8E102C005900D92DB
:10009000A038B107D9F722E0A0E8B2E001C01D9274
:1000A000A439B207E1F70E9436040C94070C0C94B3
:1000B00000009091C00095FFFCCF8093C60090E0B7
:1000C00080E00895CF93DF938091C00087FFFCCF3D
:1000D0008091C6002DE332E08D3011F42BE332E045
:1000E000C82F082E000CDD0B3F932F93DF938F93C7
:1000F00081E091E09F938F930E9419060F900F90DB
:100100000F900F900F900F90CE01DF91CF91089537
:10011000BF92CF92DF92EF92FF920F931F93CF93F4
:10012000DF937C018B01EA0184E00E942C04809122
:10013000B900887F8832D1F08091B900887F1F9202
:100140008F9386E091E09F938F930E9419060F9002
:100150000F900F900F90DF91CF911F910F91FF9013
:10016000EF90DF90CF90BF900C9414040E9408048D
:100170008091B900887F803141F08091B900887FFB
:100180001F928F9384E391E0DECF81ED0E942C04D7
:100190008091B900887F803409F058C00E9418040B
:1001A000D82E9091B900987F903509F057C00E94E1
:1001B0001804B82E9091B900987F903509F04EC080
:1001C0000E942204C82E9091B900987F983509F0BA
:1001D00045C00E9410048091B900887F883F09F0D3
:1001E00045C09D2D92959F70892F880F880F890F8C
:1001F000880F3D2D3F70D32ED80EF701D0829B2D56
:1002000092959770892F880F880F890F982F990FD3
:100210008B2D8F70890FF80180832C2D22952F70E4
:100220008C2D8F7090E0FAE02F9F800D911D11248E
:100230008053984F99838883DF91CF911F910F91BD
:10024000FF90EF90DF90CF90BF9008958091B9001C
:10025000887F1F928F938CE591E075CF8091B900D4
:10026000887F1F928F938BE891E06DCF8091B900CA
:10027000887F1F928F9382EB91E065CFBF92CF92E0
:10028000DF92EF92FF920F931F93CF93DF93EC01D6
:100290008B017A0180E00E942C048091B900887F54
:1002A0008832D1F08091B900887F1F928F9386E0C9
:1002B00091E09F938F930E9419060F900F900F90DB
:1002C0000F90DF91CF911F910F91FF90EF90DF90F2
:1002D000CF90BF900C9414040E9408048091B90040
:1002E000887F803141F08091B900887F1F928F9381
:1002F00084E391E0DECF81ED0E942C048091B9006F
:10030000887F803409F056C00E941804D82E90913E
:10031000B900987F903509F055C00E941804C82E86
:100320009091B900987F903509F04CC00E9422044A
:10033000B82E9091B900987F983509F043C00E947B
:1003400010048091B900887F883F09F043C09D2D3B
:1003500092959F70892F880F880F890F880F9D2D88
:100360009F70D92ED80EF701D0829C2D92959F7048
:10037000892F880F880F890F982F990F8C2D8F70D8
:10038000890FF80180838B2D82958F70982F990F9C
:10039000990F980F990FFB2DFF70BF2EB90EB882E1
:1003A000DF91CF911F910F91FF90EF90DF90CF9051
:1003B000BF9008958091B900887F1F928F938CE53C
:1003C00091E077CF8091B900887F1F928F938BE85F
:1003D00091E06FCF8091B900887F1F928F9382EB5D
:1003E00091E067CF87E690E09093C5008093C400CA
:1003F0001092C00088E18093C10086E08093C20023
:100400000895EF92FF920F931F93CF93DF93EC0128
:100410008B017A011882FB011082FA01118210828D
:100420000E9408048091B900887F8830B9F08091DB
:10043000B900887F1F928F9382ED91E09F938F93F5
:100440000E9419060F900F900F900F90DF91CF919F
:100450001F910F91FF90EF900C94140480ED0E9477
:100460002C048091B900887F883141F08091B900D7
:10047000887F1F928F9383EF91E0E0CFA701B801AF
:10048000CE01DF91CF911F910F91FF90EF900C94CF
:100490008800EF92FF920F931F93CF93DF93EC01AD
:1004A0008B017A011882FB011082FA0110820E94EE
:1004B00008048091B900887F8830B9F08091B90034
:1004C000887F1F928F9382ED91E09F938F930E947C
:1004D00019060F900F900F900F90DF91CF911F9101
:1004E0000F91FF90EF900C94140480ED0E942C0467
:1004F0008091B900887F883141F08091B900887F70
:100500001F928F9383EF91E0E0CFA701B801CE0156
:10051000DF91CF911F910F91FF90EF900C943E01CE
:10052000CF92DF92EF92FF920F931F93CF93DF93BF
:10053000D82FC62F8A010E9408049091B900987F95
:100540009830C9F08091B900887F1F928F9382ED17
:1005500091E09F938F930E9419060F900F900F9038
:100560000F90DF91CF911F910F91FF90EF90DF904F
:10057000CF900C94140480ED0E942C049091B9004B
:10058000987F983141F08091B900887F1F928F93B6
:1005900083EF91E0DECF84E00E942C048091B900CB
:1005A000887F883209F059C0680180EDC81A87E059
:1005B000D80A8DECF82EDF9D212D11242695269545
:1005C000269596EFE92E8D2F2E9D800D11248F708C
:1005D00090E1299F90011124822B0E942C04CF9D31
:1005E000F12C1124F694F694F6948C2FFE9C800D39
:1005F00011248F7090E1F99E90011124822B0E94AA
:100600002C049601ADECBCEC0E940A06AC01569598
:1006100047955695479556954795842F8295807FA7
:100620009A01220F331F220F331F240F351F220F71
:10063000331FC21AD30A8C290E942C040E94100472
:100640008091B900887F883F81F08091B900887FD0
:100650001F928F9382EB91E07CCF8091B900887FCD
:100660001F928F9386E091E074CF1F930F931F9298
:10067000CF931F92DF9383E292E09F938F930E9428
:1006800019068DB79EB708960FB6F8949EBF0FBE99
:100690008DBFDF91CF911F910F91FF90EF90DF9071
:1006A000CF900895FF920F931F93CF93DF93182F4E
:1006B000D62FC42F0E9408049091B900987F9830DB
:1006C000B1F08091B900887F1F928F9382ED91E005
:1006D0009F938F930E9419060F900F900F900F9089
:1006E000DF91CF911F910F91FF900C94140480ED36
:1006F0000E942C049091B900987F983141F080912C
:10070000B900887F1F928F9383EF91E0E1CF80E063
:100710000E942C048091B900887F883209F048C07B
:100720000DECC09F212D112426952695269586EF48
:10073000F82E8C2F2F9D800D11248F7090E1299F12
:1007400090011124822B0E942C04D09F212D112472
:100750002695269526958D2F2F9D800D11248F701F
:1007600090E1299F90011124822B0E942C04109F5C
:10077000012D1124069506950695812F0F9D800D5C
:1007800011248F7090E1099F90011124822B0E9407
:100790002C040E9410048091B900887F883F81F06A
:1007A0008091B900887F1F928F9382EB91E090CF68
:1007B0008091B900887F1F928F9386E091E088CF67
:1007C0001F92CF931F92DF931F921F938EE392E0AD
:1007D0009F938F930E9419068DB79EB708960FB608
:1007E000F8949EBF0FBE8DBFDF91CF911F910F91E7
:1007F000FF90089580E28093B800ECEBF0E08081F8
:100800008460808308958091BC0087FFFCCF0895A9
:1008100084EA8093BC008091BC0087FFFCCF0895E0
:1008200084E98093BC00089580E98093BC0008951A
:1008300084EC8093BC008091BC0087FFFCCF80914A
:10084000BB00089584E88093BC008091BC0087FFC2
:10085000FCCF8091BB0008958093BB0084E8809317
:10086000BC008091BC0087FFFCCF0895CDB7DEB7F8
:10087000C654D1090FB6F894DEBF0FBECDBF87E6D0
:1008800090E09093C5008093C4001092C00088E16E
:100890008093C10086E08093C20080E892E029E561
:1008A00030E0309389022093880222E630E03093D2
:1008B0008B0220938A0223E02093830210928D0200
:1008C00010928C02909393028093920290939102E3
:1008D0008093900290938F0280938E020E94FA037D
:1008E0008E010F5D1F4FCE018D5B9F4F5C01FE019E
:1008F000EF5BFF4F6F01019627969FAF8EAF279753
:1009000083E0E82E81E0F82E9AE4292E92E0392E39
:1009100023EF422E21E0522E32ED632E31E0732E72
:1009200043E3842E42E0942E1F930F93FF92EF92A5
:100930000E942D060F900F900F900F90F80180816C
:1009400091818436914609F494C081E090E0892B2E
:1009500099F5F5011082F60110821A8219820E941F
:1009600008048091B900887F883009F48EC0809196
:10097000B900887F1F928F937F926F920E94190611
:100980000E9414040F900F900F900F908A818F9304
:1009900089818F93F60180811F928F93F501808169
:1009A0001F928F939F928F920E9419060FB6F89410
:1009B000DEBF0FBECDBFB8CFF801808191818437F3
:1009C000994609F47BC081E090E0892B09F484C04A
:1009D000F801808191818337954609F4B5C081E0A3
:1009E00090E0892B09F0A0CF81E090E08C0F9D1F53
:1009F0009F938F93FF92EF920E942D060F900F907E
:100A00000F900F9089819A818436914609F4C6C06F
:100A100081E090E0892B09F4CFC089819A818437E5
:100A2000994609F4EBC081E090E0892B09F07CCF76
:100A3000DF92CF92BF92AF9227962FAD27972F9339
:100A400026968FAD26978F93E0E7F2E0FF93EF9322
:100A50000E942D06F6014081F501608125968FAD3B
:100A600025970E9452030FB6F894DEBF0FBECDBF8C
:100A70005BCF8BA19CA18437954609F066CF8DA1F1
:100A8000811163CF90E080E062CF80ED0E942C0462
:100A90008091B900887F883109F44EC08091B900F7
:100AA000887F1F928F935F924F920E9419060E9437
:100AB00014040F900F900F900F9068CF8BA19CA102
:100AC0008D36954609F07FCF8DA181117CCF90E0C6
:100AD00080E0892B09F07CCFF5011082F6011082AD
:100AE00019820E9408048091B900887F8830B1F192
:100AF0008091B900887F1F928F937F926F920E949E
:100B000019060E9414040F900F900F900F90898186
:100B10001F928F93F60180811F928F93F501808140
:100B20001F928F933F922F920E9419060FB6F8944E
:100B3000DEBF0FBECDBFF8CEAE014F5F5F4FB60137
:100B4000C5010E94880022CFF801828193818437F9
:100B5000910509F044CF90E080E043CF80ED0E9402
:100B60002C048091B900887F883181F08091B90090
:100B7000887F1F928F935F924F920E9419060E9466
:100B800014040F900F900F900F90C1CFAE014F5FE4
:100B90005F4FB601C5010E943E01B9CF8B819C8198
:100BA0008437954609F034CF8D81811131CF90E0A3
:100BB00080E0892B09F031CFDF92CF92BF92AF92C4
:100BC00027962FAD27972F9326968FAD26978F9335
:100BD000E3E6F2E0FF93EF930E942D06F6014081D9
:100BE0005181F501608125968FAD25970E94900275
:100BF0000FB6F894DEBF0FBECDBF96CE8B819C8121
:100C00008D36954609F00FCF8D8181110CCF90E084
:100C100080E00BCFA29FB001B39FC001A39F700DD6
:100C2000811D1124911DB29F700D811D1124911DF4
:100C30000895B0E0A0E0EFE1F6E00C94E00BFE01D7
:100C4000359661917191AF018091900290919102DE
:100C50000E944106E2E00C94FC0BB0E0A0E0E3E36C
:100C6000F6E00C94E00BFE01359661917191AF01B5
:100C700080918E0290918F020E94A009E2E00C9474
:100C8000FC0BAFE0B0E0E7E4F6E00C94D00B7C01A5
:100C90003B018A01DC0117961C921E92169713964F
:100CA0008C9181FFC3C19AE0292EFE0131964F013C
:100CB000D70113969C91F30193FD859193FF819148
:100CC0003F01882309F448C1853239F493FD8591A9
:100CD00093FF81913F01853229F4B70190E00E9492
:100CE000270BE6CFB12C412C512CBFE1B51538F0C4
:100CF0008B3209F188F4803201F1833221F157FC03
:100D00003AC020ED280F2A3040F556FE1FC0B29C95
:100D1000200D1124B22E06C08D3291F0803379F768
:100D2000689450F8F30193FD859193FF81913F0101
:100D30008111DBCF20C0689451F8689452F8F2CF4B
:100D4000689453F8EFCF689454F8ECCF429C200D90
:100D50001124422E689455F8E5CF8E3229F456FCC2
:100D6000FBC0689456F8DECF8C3619F4689457F8B7
:100D7000D9CF8836B9F2982F9F7D95549330C0F023
:100D80008336A1F18337C1F1833509F05BC0D80107
:100D9000CD90DD908D016B2D70E056FC02C06FEFA1
:100DA0007FEFC6010E94D30A5C01689457F80AC01D
:100DB0000C5F1F4FEFE3E983AA24A394B12C6401D5
:100DC000E89457F853FC04C04A141B0409F018F5C2
:100DD000342CA114B10431F5332009F469CFB701E3
:100DE00080E290E00E94270B3A94F6CFD8018C91D4
:100DF00089830E5F1F4FE0CFF801C190D1908F0122
:100E00006B2D70E056FC02C06FEF7FEFC6010E94B1
:100E1000DE0A5C01D5CFB70180E290E00E94270B8B
:100E20004A94D2CFF60157FC859157FE81916F010C
:100E3000B70190E00E94270B31103A94B1E0AB1A51
:100E4000B108C7CF843619F0893609F074C0F801AB
:100E500057FE6AC061917191819191918F01E52D49
:100E6000EF76DE2E97FF09C090958095709561957D
:100E70007F4F8F4F9F4F6894D7F82AE030E0A4014E
:100E80000E946F0BC82EC818AC2C5D2CD6FE0CC06F
:100E9000E89450F8CB1440F4D4FE05C0D2FC03C053
:100EA0005D2D5E7E552EAB2C54FE98C0FE01EC0DE0
:100EB000F11D8081803309F08AC0652D697E562E30
:100EC000752D7870372E53FC98C050FE92C0BC2C04
:100ED000A41418F44C0CB42CBA1854FE94C0B701E6
:100EE00080E390E00E94270B52FE09C088E790E063
:100EF00051FE02C088E590E0B7010E94270BCB1499
:100F000008F48DC0CA94D12C8FEFC81AD80AC80C27
:100F1000D91CD6018E916D01B70190E00E94270B7C
:100F20008C149D04B1F758CF61917191072E000C7C
:100F3000880B990B93CFD52CE894D4F82AE030E0B5
:100F4000853739F1F52DF97FDF2E8037A9F058F478
:100F50008835A9F08F36D9F0F701868197812F96D1
:100F6000E2E10C94EC0B8837B9F7D4FE02C0689428
:100F7000D2F820E130E00DC06894D4F8F6CF54FEEA
:100F800003C02F2F2660D22E20E132E002C028E0DD
:100F900030E0F801D7FE15C04191519161917191F6
:100FA0004C875D876E877F878F01A4016C857D8567
:100FB0008E859F850E946F0BC82EC818E894D7F8BD
:100FC00063CF81919191AC0170E060E0E9CF52FC78
:100FD00002C0A39475CFA394A39472CF852D867875
:100FE00009F46ECFF6CFB70180E290E00E94270BA4
:100FF000A394A414C0F3312C70CF342C3A18A41449
:1010000008F46BCFF8CF852D867809F478CF8BE282
:1010100051FE80E257FC8DE2B70190E06ECFB70140
:1010200080E390E00E94270BBA9469CF8FEF9FEF87
:1010300096CFFC01CA01DB0120FD08C023FD05C0DD
:1010400022FF02C0B383A283918380830895CF924D
:10105000DF92EF92FF92CF93DF9300D000D0CDB715
:10106000DEB76B017C0183E044FD10C084E046FDE7
:101070000DC0D601F701AA0FBB1FEE1FFF1F109472
:10108000D1F7CA0EDB1EEE1EFF1E81E0CC0CDD1C6C
:10109000EE1CFF1C8150D1F7D701C601820F911DB4
:1010A000A11DB11DBC01CD010F900F900F900F90AD
:1010B000DF91CF91FF90EF90DF90CF9008950F9345
:1010C0001F93CF93DF938C01C8010E94E90AEC01C2
:1010D00097FD08C00E94BF0A892BB1F7B801CE0165
:1010E0000E94570BCE01DF91CF911F910F91089570
:1010F000B0E0A0E0EEE7F8E00C94D80B8C01C62F2E
:101100005A01F22E0E94E90AFC019927EB3221F0E4
:101110008D9781F46894F7F8C15031F480E0CDB731
:10112000DEB7EAE00C94F40BC8010E94E90AFC0166
:1011300097FDF4CFDF2DDD7F8F2D807309F5E03330
:10114000F9F4EE24EA94EC0EC13091F0C8010E944B
:10115000E90AFC0197FD0CC08F7D883569F4D264E3
:10116000C25031F0C8010E94E90AFC0197FF08C093
:10117000C12CD12C76011CC0F6FE2CC0D260CE2D25
:10118000C12CD12C760120ED2E0F283030F1D4FD6A
:1011900009C02A3010F1D6FF05C02F7D8FEE820FD7
:1011A0008630D0F0B801CF010E94570BD1FFB6CFE7
:1011B000D7FF08C0F094E094D094C094C11CD11C17
:1011C000E11CF11C2D2FB701A601C5010E941908D1
:1011D00081E0A5CFD261D3CF27504D2FC701B601F3
:1011E0000E9427086B017C01D260C15009F3C8013D
:1011F0000E94E90AFC0197FFC6CFD8CFA0E2B0E079
:10120000E4E0F9E00C94D60B6C01962E7A01CE0145
:1012100001965C0180E2F50111928A95E9F7F601E9
:101220008380890150E040E0B0E020E0A0E061E090
:1012300070E0F80183FC959183FE9191892F8F01D5
:10124000911107C010E000E0C801A096ECE00C94FA
:10125000F20B9E3519F44115510531F1A41715060D
:10126000ECF49D3549F19D32C9F4222309F1E82FB0
:10127000E695E695E695EA0DFB2DF11D982F977002
:101280009B0101C0220F9A95EAF79081292B2083B8
:101290008B1781F08B1730F48F5FE9CF2111E7CFE7
:1012A000B92FE5CF8150E3CFA1E04F5F5F4FC1CFB2
:1012B00021E0FBCF20E0F9CF222319F08E8180625C
:1012C0008E83AA2361F0F5019E012F5D3F4F80813F
:1012D000DF01319680958C93E217F307C1F78824DC
:1012E0008394C6010E94E90A97FD16C0E82FE6958F
:1012F000E695E695EA0DFB2DF11D208130E0AC016D
:101300004770552702C0359527954A95E2F720FD8D
:1013100006C0B6010E94570B882059F093CFE11404
:10132000F10419F0F70181937F019A94812C9110B7
:10133000D8CFE114F10409F487CFF701108284CFEC
:10134000A6E0B0E0E6EAF9E00C94D40B5C016D8312
:101350007E83742E652EDC0117961C921E921697C2
:10136000C12CD5011396FC90ED81FE81F3FC859193
:10137000F3FE8191182FFE83ED838823F9F090E02E
:101380000E94BF0A892B21F0C5010E945F08E9CFA6
:10139000153251F4ED81FE81F3FC1591F3FE1191AC
:1013A000FE83ED83153269F4C5010E94E90A97FDB9
:1013B000A2C01817B1F2B5010E94570B8C2D90E016
:1013C0009EC000E01A3249F4ED81FE81F3FC1591D4
:1013D000F3FE1191FE83ED8301E0D12C20ED210F6E
:1013E0002A3060F101FF42C0DD2041F3183609F4D4
:1013F00040C01C3609F449C0112301F3612F70E08D
:1014000088E690E00E94C80A892BC1F2F12CE12CF9
:1014100000FD06C0E72DF62DE190F1907E2E6F2E97
:101420001E3609F03CC0D50116964D915C9170E0D6
:1014300060E0202FC7010E94190893CF02608D2D14
:1014400090E0B0E0A0E089839A83AB83BC8340E264
:10145000BC01CD010E942708D62EED81FE81F3FC50
:101460001591F3FE1191FE83ED83B8CFDD24DA945C
:10147000BDCFED81FE81F3FC1591F3FE1191FE834A
:10148000ED83183609F0B8CF08600460ED81FE8165
:10149000F3FC1591F3FE1191FE83ED83ADCF13366E
:1014A000B1F401FD02C0DD24D394C5010E94E90A14
:1014B00097FD21C0E114F10419F0F70181937F0138
:1014C000DA94D110F2CF00FD4CCFC3944ACF1B3534
:1014D000D1F42D813E81A7016D2DC5010E94FE082A
:1014E0008D839E83ED81FE81EF2B69F7F50183816A
:1014F000807309F463CF8FEF9FEFC1105FCF269603
:10150000EEE00C94F00BC5010E945F0897FDF3CF4D
:101510001F3699F130F4143641F0193639F0006471
:1015200005C01337A9F01537D1F70062202FA701A6
:101530006D2DC5010E9478088111C5CFD7CFE11468
:10154000F10419F0F70181927F01DA94DD2071F046
:10155000C5010E94E90A4C0197FD08C00E94BF0A1C
:10156000892B69F3B501C4010E94570BE114F10402
:1015700009F4A9CFD7011C92A6CF0061D7CF911152
:101580000C94CD0B803219F089508550C8F708951E
:10159000FC010590061621F00020D9F7C00108953E
:1015A0003197CF010895FC01059061507040011002
:1015B000D8F7809590958E0F9F1F0895FC0161507C
:1015C000704001900110D8F7809590958E0F9F1F65
:1015D0000895CF93DF93EC018B8180FF33C086FFAA
:1015E0000CC08F7B8B838E819F8101969F838E831E
:1015F0008A8190E0DF91CF91089582FF15C0E88144
:10160000F9819081292F092E000C330B80629923D8
:10161000C1F03196F983E8838E819F8101969F8383
:101620008E83C9019927E6CFEA85FB85CE0109950E
:101630009C0197FFF1CF8B812F3F3F4F31F090E21C
:10164000892B8B838FEF9FEFD5CF90E1F9CF0F934D
:101650001F93CF93DF93182F092FEB018B8181FD0F
:1016600009C01FEF0FEF812F902FDF91CF911F91B6
:101670000F91089582FF14C02E813F818C819D813E
:10168000281739073CF4E881F981CF010196998345
:10169000888310838E819F8101969F838E83E3CF01
:1016A000E885F985812F0995892BA1F3DACFFB0114
:1016B000238120FF11C026FD0FC08F3F980771F0D6
:1016C00082832F7D20642383268137812150310935
:1016D00037832683992708958FEF9FEF0895FA01A6
:1016E000AA27283051F1203181F1E8946F936E7F61
:1016F0006E5F7F4F8F4F9F4FAF4FB1E03ED0B4E052
:101700003CD0670F781F891F9A1FA11D680F791F92
:101710008A1F911DA11D6A0F711D811D911DA11DA3
:1017200020D009F468943F912AE0269F11243019B3
:10173000305D3193DEF6CF010895462F4770405D4E
:101740004193B3E00FD0C9F7F6CF462F4F70405DFD
:101750004A3318F0495D31FD4052419302D0A9F758
:10176000EACFB4E0A6959795879577956795BA9552
:10177000C9F700976105710508959B01AC010A2E18
:1017800006945795479537952795BA95C9F7620FEF
:10179000731F841F951FA01D0895992788270895FA
:1017A0002F923F924F925F926F927F928F929F9271
:1017B000AF92BF92CF92DF92EF92FF920F931F935F
:1017C000CF93DF93CDB7DEB7CA1BDB0B0FB6F89410
:1017D000DEBF0FBECDBF09942A88398848885F8450
:1017E0006E847D848C849B84AA84B984C884DF80C1
:1017F000EE80FD800C811B81AA81B981CE0FD11DA5
:101800000FB6F894DEBF0FBECDBFED010895F8947A
:02181000FFCF08
:1018120068256325730049324320454550524F4D98
:1018220020736574206164647265737320666169F4
:101832006C65642C207374617475733A20252E32A2
:10184200780D0A00493243207365636F6E6420731A
:1018520074617274206661696C65642C20737461B2
:101862007475733A20252E32780D0A0049324320CE
:10187200454550524F4D2072656164207265717505
:10188200657374206661696C65642C20737461747D
:1018920075733A20252E32780D0A004932432045CD
:1018A2004550524F4D2072656164206661696C65D6
:1018B200642C207374617475733A20252E32780D6E
:1018C2000A004932432073746F70206661696C6547
:1018D200642C207374617475733A20252E32780D4E
:1018E2000A00493243207374617274206661696C24
:1018F20065642C207374617475733A20252E3278D6
:101902000D0A0049324320454550524F4D2077720F
:101912006974652072657175657374206661696C9E
:1019220065642C207374617475733A20252E3278A5
:101932000D0A0073657474696E67206461746520B2
:10194200746F2025752D25752D25750D0A00746976
:101952006D652073657420746F2025753A25753A7C
:1019620025750D0A00646174650074696D65007304
:10197200657400256868752D256868752D257500C4
:10198200256868753A256868753A256868750000A3
:00000001FF
