:100000000C9434000C9451000C9451000C94510049
:100010000C9451000C9451000C9451000C9451001C
:100020000C9451000C9451000C9451000C9451000C
:100030000C9451000C9451000C9451000C945100FC
:100040000C9451000C9451000C9451000C945100EC
:100050000C9451000C9451000C9451000C945100DC
:100060000C9451000C94510011241FBECFEFD8E026
:10007000DEBFCDBF11E0A0E0B1E0E6E6F8E002C0EF
:1000800005900D92A637B107D9F721E0A6E7B1E0B8
:1000900001C01D92AA38B207E1F70E9480000C94BB
:1000A00031040C9400009091C00095FFFCCF809328
:1000B000C60090E080E008958091C00087FFFCCFEB
:1000C0008091C60090E0089587E690E09093C50087
:1000D0008093C4001092C00088E18093C10086E044
:1000E0008093C200089510928100109285001092B2
:1000F00084000895E1E8F0E080818C6080830895B9
:10010000CDB7DEB764970FB6F894DEBF0FBECDBF94
:1001100087E690E09093C5008093C4001092C000E1
:1001200088E18093C10086E08093C20086E791E079
:1001300023E530E030937F0120937E012CE530E011
:10014000309381012093800123E020937901109264
:10015000830110928201909389018093880190938A
:100160008701809386019093850180938401259A6D
:100170002D9894E3C92E91E0D92EE0E01C9942C05D
:10018000109281001092850010928400809181006D
:100190008C608093810021E08091840090918500A3
:1001A00081319A47A8F0222309F471C0109281008E
:1001B00010928500109284002D9A1C9974C0809131
:1001C00084009091850081319A4708F060C020E05A
:1001D0001C9BE2CF2D981092810010928500109206
:1001E0008400809181008C60809381008EE22223C4
:1001F00009F465C0A1E0B0E0AC0FBD1FAE0FB11DAA
:100200008C93EF5F80918400909185008332944FAE
:1002100008F4B4CF109281001092850010928400EF
:1002200081E090E08C0F9D1F8E0F911DFC011082CC
:100230002D9A9FEFE3ECF9E09150E040F040E1F7B8
:1002400000C000002D9880E0E82E81E0F82E10E03C
:1002500000E006C00F5F1F4F0A31110509F48DCF72
:10026000F701619171917F01CE0101960E946101B8
:10027000892B81F70F591F4F1F930F93DF92CF9256
:100280000E946A010F900F900F900F9076CF1C99EB
:100290000AC0809184009091850081319A4708F4CA
:1002A00096CF1C9BF6CF2D9810928100109285005E
:1002B00010928400809181008C60809381008FE592
:1002C00099CFFB01DC018D91019080190110D9F3C8
:1002D000990B0895B0E0A0E0E0E7F1E00C940A0487
:1002E000FE01359661917191AF01809186019091E7
:1002F00087010E947E01E2E00C942604AFE0B0E0AA
:10030000E4E8F1E00C94FA037C013B018A01DC0192
:1003100017961C921E92169713968C9181FFC3C15B
:100320009AE0292EFE0131964F01D70113969C9138
:10033000F30193FD859193FF81913F01882309F497
:1003400048C1853239F493FD859193FF81913F0136
:10035000853229F4B70190E00E946C03E6CFB12CFE
:10036000412C512CBFE1B51538F08B3209F188F4DE
:10037000803201F1833221F157FC3AC020ED280F81
:100380002A3040F556FE1FC0B29C200D1124B22E1B
:1003900006C08D3291F0803379F7689450F8F301FC
:1003A00093FD859193FF81913F018111DBCF20C0A7
:1003B000689451F8689452F8F2CF689453F8EFCFEC
:1003C000689454F8ECCF429C200D1124422E68947E
:1003D00055F8E5CF8E3229F456FCFBC0689456F8E8
:1003E000DECF8C3619F4689457F8D9CF8836B9F235
:1003F000982F9F7D95549330C0F08336A1F18337B9
:10040000C1F1833509F05BC0D801CD90DD908D013D
:100410006B2D70E056FC02C06FEF7FEFC6010E94AB
:1004200056035C01689457F80AC00C5F1F4FEFE356
:10043000E983AA24A394B12C6401E89457F853FCEF
:1004400004C04A141B0409F018F5342CA114B1049B
:1004500031F5332009F469CFB70180E290E00E94C2
:100460006C033A94F6CFD8018C9189830E5F1F4FAD
:10047000E0CFF801C190D1908F016B2D70E056FC58
:1004800002C06FEF7FEFC6010E9461035C01D5CF10
:10049000B70180E290E00E946C034A94D2CFF6014B
:1004A00057FC859157FE81916F01B70190E00E9442
:1004B0006C0331103A94B1E0AB1AB108C7CF84365F
:1004C00019F0893609F074C0F80157FE6AC06191CD
:1004D0007191819191918F01E52DEF76DE2E97FF3D
:1004E00009C090958095709561957F4F8F4F9F4F74
:1004F0006894D7F82AE030E0A4010E949C03C82E3B
:10050000C818AC2C5D2CD6FE0CC0E89450F8CB1467
:1005100040F4D4FE05C0D2FC03C05D2D5E7E552E96
:10052000AB2C54FE98C0FE01EC0DF11D8081803390
:1005300009F08AC0652D697E562E752D7870372E8C
:1005400053FC98C050FE92C0BC2CA41418F44C0C60
:10055000B42CBA1854FE94C0B70180E390E00E9416
:100560006C0352FE09C088E790E051FE02C088E5A6
:1005700090E0B7010E946C03CB1408F48DC0CA94BC
:10058000D12C8FEFC81AD80AC80CD91CD6018E916D
:100590006D01B70190E00E946C038C149D04B1F7CB
:1005A00058CF61917191072E000C880B990B93CF56
:1005B000D52CE894D4F82AE030E0853739F1F52DD0
:1005C000F97FDF2E8037A9F058F48835A9F08F36EF
:1005D000D9F0F701868197812F96E2E10C941604F9
:1005E0008837B9F7D4FE02C06894D2F820E130E031
:1005F0000DC06894D4F8F6CF54FE03C02F2F2660A8
:10060000D22E20E132E002C028E030E0F801D7FE2F
:1006100015C041915191619171914C875D876E87B1
:100620007F878F01A4016C857D858E859F850E94C3
:100630009C03C82EC818E894D7F863CF8191919194
:10064000AC0170E060E0E9CF52FC02C0A39475CF2A
:10065000A394A39472CF852D867809F46ECFF6CF3C
:10066000B70180E290E00E946C03A394A414C0F34D
:10067000312C70CF342C3A18A41408F46BCFF8CF77
:10068000852D867809F478CF8BE251FE80E257FC05
:100690008DE2B70190E06ECFB70180E390E00E9459
:1006A0006C03BA9469CF8FEF9FEF96CFFC01059052
:1006B000615070400110D8F7809590958E0F9F1F64
:1006C0000895FC016150704001900110D8F78095A9
:1006D00090958E0F9F1F08950F931F93CF93DF93D5
:1006E000182F092FEB018B8181FD09C01FEF0FEF40
:1006F000812F902FDF91CF911F910F91089582FF4D
:1007000014C02E813F818C819D81281739073CF4CC
:10071000E881F981CF0101969983888310838E81C6
:100720009F8101969F838E83E3CFE885F985812F92
:100730000995892BA1F3DACFFA01AA27283051F1C4
:10074000203181F1E8946F936E7F6E5F7F4F8F4F02
:100750009F4FAF4FB1E03ED0B4E03CD0670F781F61
:10076000891F9A1FA11D680F791F8A1F911DA11D46
:100770006A0F711D811D911DA11D20D009F468947F
:100780003F912AE0269F11243019305D3193DEF627
:10079000CF010895462F4770405D4193B3E00FD0DD
:1007A000C9F7F6CF462F4F70405D4A3318F0495DC8
:1007B00031FD4052419302D0A9F7EACFB4E0A695AB
:1007C0009795879577956795BA95C9F700976105CD
:1007D000710508959B01AC010A2E06945795479523
:1007E00037952795BA95C9F7620F731F841F951F18
:1007F000A01D08952F923F924F925F926F927F9229
:100800008F929F92AF92BF92CF92DF92EF92FF9220
:100810000F931F93CF93DF93CDB7DEB7CA1BDB0BCC
:100820000FB6F894DEBF0FBECDBF09942A88398871
:1008300048885F846E847D848C849B84AA84B98478
:10084000C884DF80EE80FD800C811B81AA81B98184
:10085000CE0FD11D0FB6F894DEBF0FBECDBFED0198
:060860000895F894FFCF9B
:10086600630139013E0153014B014301580148011F
:100876004A014D015D0152016D0145014E015701CD
:100886005C01440149016401620161016C01660178
:100896006B01700125630D0A005F2E2E2E005F2E60
:1008A6005F2E002E2E5F2E002E2E2E2E002E5F5F28
:1008B6005F002E5F2E2E002E5F5F2E005F5F2E5F85
:1008C600002E2E2E5F005F2E2E5F005F2E5F5F00D4
:0608D6005F5F2E2E000002
:00000001FF
