:100000000C9434000C943E000C943E000C943E0082
:100010000C943E000C943E000C943E000C943E0068
:100020000C943E000C943E000C943E000C943E0058
:100030000C943E000C943E000C943E000C943E0048
:100040000C943E000C943E000C943E000C943E0038
:100050000C943E000C943E000C943E000C943E0028
:100060000C943E000C943E0011241FBECFEFD8E04C
:10007000DEBFCDBF0E9440000C9472000C940000C3
:100080008091C100877E8093C1008AB18FEF8AB9C9
:100090001BB830E020E090E080E01C991BC091117B
:1000A00003C01BB880E091E01B9917C0211106C066
:1000B0008150282F269528272BB921E01A9910C0A6
:1000C0003111EBCF8F5F382F369538273BB931E0B0
:1000D0001C9BE5CF90E01B9BE9CF20E01A9BF0CF63
:0800E00030E0DBCFF894FFCF04
:00000001FF
