:100000000C9434000C943E000C943E000C943E0082
:100010000C943E000C943E000C943E000C943E0068
:100020000C943E000C943E000C943E000C943E0058
:100030000C943E000C943E000C943E000C943E0048
:100040000C943E000C943E000C943E000C943E0038
:100050000C943E000C943E000C943E000C943E0028
:100060000C943E000C943E0011241FBECFEFD8E04C
:10007000DEBFCDBF0E945B000C94AB000C9400006F
:100080008823C1F090E02D9A2FEF31EE44E021500B
:1000900030404040E1F700C000002D982FEF35EAD6
:1000A0004EE0215030404040E1F700C000009F5F2B
:1000B0008913E9CF0895259A2D9841E090E01C9985
:1000C00030C0442321F09F5F40E0913061F12091E6
:1000D0008400309185002332344F88F3992379F3DB
:1000E00010928100109285001092840080E02D9A79
:1000F0002FEF31EE54E0215030405040E1F700C086
:1001000000002D982FEF35EA5EE02150304050403E
:10011000E1F700C000008F5F8913E9CF90E01C9BDE
:10012000D0CF41E0D4CF809181008C60809381005A
:10013000209184003091850040E02332344F80F6D6
:1001400043B1429541702091840030918500233263
:0A015000344F30F6B4CFF894FFCF1F
:00000001FF
